:03000000020150AA
:0C015000787FE4F6D8FD75810C02008E6B
:0A015C00039F250D9949411F010979
:10008E00E4F508F509F50AF50B750CEE850C90E410
:10009E00F508F50975A001AE0AAF0B7C037DE812D9
:1000AE000003745C2FF58274013E12012675A002C6
:1000BE007D6412010E75A0047D0A12010E75A00852
:1000CE00AE0AAF0B1201170509E50970020508C348
:1000DE009432E5086480948040BAAF0C7801EF0842
:1000EE00800123D8FDF50C050BE50B7002050A64A3
:1000FE000F7004E50A64277093F50AF50B02009A57
:10010E00AE0AAF0B7C001200037C007D0A120003C6
:10011E00745C2DF58274013CF583E493F580B2B0E6
:04012E007F057E00CB
:10013200D3EF9400EE940040147D6E7C00ED1D70B0
:0D014200011CED4C70F7EF1F70E61E80E30E
:01014F00228D
:10000300C2D5EC30E709B2D5E4C39DFDE49CFCEE18
:1000130030E715B2D5E4C39FFFE49EFE120039C357
:10002300E49DFDE49CFC800312003930D507C3E452
:060033009FFFE49EFE2287
:10003900BC000BBE0029EF8DF084FFADF022E4CCAB
:10004900F875F008EF2FFFEE33FEEC33FCEE9DEC74
:10005900984005FCEE9DFE0FD5F0E9E4CEFD22EDBA
:10006900F8F5F0EE8420D21CFEADF075F008EF2F04
:10007900FFED33FD4007985006D5F0F222C398FDF5
:050089000FD5F0EA2292
:00000001FF
